:100000000C94CC000C94E9000C94E9000C94E900E9
:100010000C94E9000C94E9000C94E9000C94E900BC
:100020000C94E9000C94E9000C94E9000C94E900AC
:100030000C94E9000C94E9000C94E9000C94E9009C
:100040000C94E9000C94E9000C94E9000C94E9008C
:100050000C94E9000C94E9000C94E9000C94E9007C
:100060000C94E9000C94E9000A53746174757320D0
:100070006661696C21000A4661696C21000A53754A
:10008000636365737321000A54657374696E672E28
:100090002E2E000A57726974696E672E2E2E000A82
:1000A000436F6E74696E75652074657374696E67ED
:1000B00020454550524F4D2066726F6D2074657219
:1000C0006D696E616C21000A5374617475732066EA
:1000D00061696C21000A53746174757320666169EB
:1000E0006C21000A50616765207772697465206130
:1000F0006E642072656164206661696C21000A503B
:1001000061676520777269746520616E642072652D
:100110006164207375636365737321000A526561BE
:1001200064696E6720313620627974657320667267
:100130006F6D2070616765203520000A5772697401
:10014000696E6720313620627974657320746F2080
:1001500070616765203520000A53746174757320DF
:100160006661696C21000A5374617475732066615D
:10017000696C21000A5265616420627974652046C9
:10018000726F6D20656570726F6D006364696E6F6C
:1001900070737578585B000011241FBECFEFD8E054
:1001A000DEBFCDBF11E0A0E0B1E0EAE5F6E102C0BC
:1001B00005900D92A63BB107D9F711E0A6EBB1E08F
:1001C00001C01D92AC3BB107E1F70E946A020C949A
:1001D0002B0B0C940000DF93CF9300D000D0CDB751
:1001E000DEB79A8389836B830E9457040E94AF0411
:1001F000883019F081E08C832AC089819A818070CF
:100200009770880F892F881F990B9195806A0E949B
:1002100072040E94AF04883119F081E08C8317C00A
:1002200089810E9472040E94AF04883219F081E033
:100230008C830DC08B810E9472040E94AF048832AF
:1002400019F081E08C8303C00E9467041C828C81BA
:100250000F900F900F900F90CF91DF910895DF9343
:10026000CF9300D000D000D0CDB7DEB78B837D8395
:100270006C831A828B818295807F8A830E945704C7
:100280000E94AF04883019F081E08E8338C08A81E3
:100290008695869586958E75806A0E9472040E9466
:1002A000AF04883119F081E08E8329C08A8182955C
:1002B000807F0E9472040E94AF04883219F081E0AE
:1002C0008E831DC0198215C0EC81FD8120818C8137
:1002D0009D8101969D838C83822F0E9472040E94CF
:1002E000AF04883219F081E08E8309C089818F5F65
:1002F00089838981803140F30E9467041E828E8148
:1003000026960FB6F894DEBF0FBECDBFCF91DF911A
:100310000895DF93CF9300D000D00F92CDB7DEB712
:100320009A8389837C836B830E9457040E94AF0465
:10033000883019F081E08D8348C089819A8180706E
:100340009770880F892F881F990B9195806A0E945A
:1003500072040E94AF04883119F081E08D8335C0AA
:1003600089810E9472040E94AF04883219F081E0F2
:100370008D832BC00E9457040E94AF04803119F076
:1003800081E08D8322C089819A8180709770880F67
:10039000892F881F990B9195816A0E9472040E948F
:1003A000AF04803419F081E08D830FC00E949C045B
:1003B000EB81FC8180830E94AF04883519F081E0D5
:1003C0008D8303C00E9467041D828D810F900F9062
:1003D0000F900F900F90CF91DF910895DF93CF93FF
:1003E00000D000D000D0CDB7DEB78B837D836C8387
:1003F0001A828B818295807F8A830E9457040E9493
:10040000AF04883019F081E08E835AC08A818695C6
:10041000869586958E75806A0E9472040E94AF044C
:10042000883119F081E08E834BC08A818295807F6C
:100430000E9472040E94AF04883219F081E08E831A
:100440003FC00E9457040E94AF04803119F081E040
:100450008E8336C08A81869586958695816A0E94AC
:1004600072040E94AF04803419F081E08E8328C0AA
:10047000198214C00E948904EC81FD8180838C81E3
:100480009D8101969D838C830E94AF04803519F075
:1004900081E08E8315C089818F5F898389818F3048
:1004A00048F30E949C04EC81FD8180830E94AF048C
:1004B000883519F081E08E8303C00E9467041E8294
:1004C0008E8126960FB6F894DEBF0FBECDBFCF91BA
:1004D000DF910895DF93CF93CDB7DEB7AB970FB61B
:1004E000F894DEBF0FBECDBF80EF97E09E838D8373
:1004F00085E08A83CE01479698A78FA3E5EAF1E0CD
:10050000FAA7E9A7F0E1FBA7E9A5FAA5008089A56C
:100510009AA501969AA789A7EFA1F8A500828FA1B5
:1005200098A5019698A78FA39BA591509BA7EBA593
:10053000EE2351F70E94BE040E94450487E991E032
:100540009093B9018093B8018091B8019091B9015D
:100550009093B7018093B6012D813E8100D000D0E9
:1005600000D0EDB7FEB7319680E091E091838083B3
:1005700088E590E093838283358324830E9420055D
:100580008DB79EB706960FB6F8949EBF0FBE8DBF6F
:100590008D819E8168E50E94EB00813009F441C0A5
:1005A00084E791E000D0EDB7FEB731969183808368
:1005B0000E9435050F900F908D819E819E012D5FC9
:1005C0003F4FB9010E9489018130F1F04D815E8178
:1005D0008B81282F30E000D000D000D0EDB7FEB7DF
:1005E00031968AE291E091838083538342833583FD
:1005F00024830E942005EDB7FEB736960FB6F89417
:10060000FEBF0FBEEDBF19C086E691E000D0EDB78A
:10061000FEB73196918380830E9435050F900F902D
:100620000CC088E591E000D0EDB7FEB7319691831C
:1006300080830E9435050F900F908BE391E000D0EE
:10064000EDB7FEB73196918380830E9435050F90F8
:100650000F909E01295E3F4F8A81B9010E942F01B0
:10066000813009F45BC08CE191E000D0EDB7FEB7BA
:100670003196918380830E9435050F900F909E01E3
:10068000295F3F4F8A81B9010E94EE018130C9F193
:10069000198217C08981282F30E0CE010796FC010E
:1006A000E20FF31F40818981282F30E0CE01479669
:1006B000FC01E20FF31F8081481731F489818F5FBD
:1006C00089838981803130F38981803169F48EEFAB
:1006D00090E000D0EDB7FEB73196918380830E9401
:1006E00035050F900F9026C083EE90E000D0EDB757
:1006F000FEB73196918380830E9435050F900F904D
:1007000019C085ED90E000D0EDB7FEB7319691832A
:1007100080830E9435050F900F900CC087EC90E00D
:1007200000D0EDB7FEB73196918380830E943505E6
:100730000F900F908FE990E000D0EDB7FEB73196A3
:10074000918380830E9435050F900F9000D000D0D8
:10075000EDB7FEB731968AE391E09183808380E024
:1007600098E0938382830E9420050F900F900F9052
:100770000F9000D000D0EDB7FEB7319686E691E03D
:1007800091838083CE010596938382830E945B05CB
:100790000F900F900F900F902D813E8100D000D0D0
:1007A000EDB7FEB7319689E691E09183808333837C
:1007B00022830E9420050F900F900F900F9000D081
:1007C00000D0EDB7FEB7319686E691E09183808345
:1007D000CE010396938382830E945B050F900F9056
:1007E0000F900F9083E990E000D0EDB7FEB73196FF
:1007F000918380830E9435050F900F908D819E819B
:100800002B81622F0E94EB0087E890E000D0EDB7CB
:10081000FEB73196918380830E9435050F900F902B
:100820008D819E819E012C5F3F4FB9010E948901FD
:100830008130F1F09B818C81981769F48DE790E00D
:1008400000D0EDB7FEB73196918380830E943505C5
:100850000F900F907BCF86E790E000D0EDB7FEB70A
:100860003196918380830E9435050F900F906ECF53
:1008700088E690E000D0EDB7FEB731969183808393
:100880000E9435050F900F9061CFDF93CF93CDB7C6
:10089000DEB7E9EBF0E01082E8EBF0E08CE080837B
:1008A000ECEBF0E084E08083CF91DF910895DF935B
:1008B000CF93CDB7DEB7ECEBF0E084EA8083ECEBCE
:1008C000F0E080818823DCF7CF91DF910895DF93FA
:1008D000CF93CDB7DEB7ECEBF0E084E98083CF9126
:1008E000DF910895DF93CF930F92CDB7DEB7898361
:1008F000EBEBF0E089818083ECEBF0E084E880832F
:10090000ECEBF0E080818823DCF70F90CF91DF9152
:100910000895DF93CF93CDB7DEB7ECEBF0E084EC36
:100920008083ECEBF0E080818823DCF7EBEBF0E0F8
:100930008081CF91DF910895DF93CF93CDB7DEB75C
:10094000ECEBF0E084E88083ECEBF0E0808188233E
:10095000DCF7EBEBF0E08081CF91DF910895DF933E
:10096000CF930F92CDB7DEB7E9EBF0E08081887FBF
:10097000898389810F90CF91DF910895DF93CF9381
:10098000CDB7DEB7E5ECF0E01082E4ECF0E087E60E
:100990008083A2ECB0E0E2ECF0E0808186608C9392
:1009A000A1ECB0E0E1ECF0E0808188618C93CF9124
:1009B000DF910895DF93CF9300D00F92CDB7DEB7CC
:1009C00089837B836A8389818A3029F48DE060E0A2
:1009D00070E00E94DA04E0ECF0E08081882F90E083
:1009E000807290700097B9F3E6ECF0E08981808323
:1009F00080E090E00F900F900F90CF91DF910895DD
:100A0000DF93CF9300D00F92CDB7DEB79B838A835D
:100A1000E0ECF0E080818823DCF7E6ECF0E0808118
:100A200089832A813B818981B9010E94DA04898105
:100A3000882F90E00F900F900F90CF91DF91089545
:100A4000A0E0B0E0E6E2F5E00C94040BFE01359680
:100A5000619171918091B8019091B901AF010E94AB
:100A600070052096E2E00C94200BA0E0B0E0EBE3F0
:100A7000F5E00C94040BFE01359661917191A09103
:100A8000B801B091B90113968C91139788601396B1
:100A90008C938091B8019091B901AF010E947005CB
:100AA000E091B801F091B9012381277F238320963B
:100AB000E2E00C94200BA0E0B0E0E1E6F5E00C945D
:100AC000040BFE013596619171918091B601909170
:100AD000B701AF010E94D1082096E2E00C94200BF0
:100AE000ABE0B0E0E6E7F5E00C94F40A3C012B0142
:100AF0005A01FC0117821682838181FD03C06FEFCA
:100B00007FEFC6C19AE0892E1E010894211C311C7A
:100B1000F3012381F20123FD859123FF81912F01B0
:100B2000882309F4B2C1853239F423FD859123FF6E
:100B300081912F01853229F490E0B3010E944D0A82
:100B4000E7CF982FFF24EE249924FFE1FF15D0F082
:100B50009B3269F09C3228F4903259F0933291F430
:100B60000EC09D3249F0903369F441E024C052E058
:100B7000F52A84E0F82A28C098E0F92A25C0E0E1A7
:100B8000FE2A22C0F7FC29C0892F80538A3070F4D6
:100B9000F6FE05C0989C902C1124980E15C0E89C78
:100BA000E02C1124E80EF0E2FF2A0EC09E3229F458
:100BB000F6FC6BC140E4F42A07C09C3619F450E8F7
:100BC000F52A02C0983649F4F20123FD959123FFDE
:100BD00091912F01992309F0B8CF892F8554833043
:100BE00018F08052833038F444E050E0A40EB51E73
:100BF0005FE359830FC0933631F0933779F0933523
:100C000009F056C020C0F5018081898342E050E0A0
:100C1000A40EB51E610101E010E012C0F501C08014
:100C2000D180F6FC03C06FEF7FEF02C0692D70E04A
:100C300042E050E0A40EB51EC6010E94000A8C01DD
:100C40005FE7F52214C0F501C080D180F6FC03C037
:100C50006FEF7FEF02C0692D70E042E050E0A40E1C
:100C6000B51EC6010E94F5098C0150E8F52AF3FE75
:100C700007C01AC080E290E0B3010E944D0AEA94D6
:100C80008E2D90E008171907A8F30EC0F601F7FCA7
:100C90008591F7FE81916F0190E0B3010E944D0AAA
:100CA000E110EA94015010400115110579F7EAC0EE
:100CB000943611F0993669F5F7FE08C0F5012081E8
:100CC00031814281538184E090E00AC0F501808146
:100CD00091819C01442737FD4095542F82E090E09C
:100CE000A80EB91E9FE6F92257FF09C050954095FE
:100CF000309521953F4F4F4F5F4FE0E8FE2ACA01E4
:100D0000B901A1012AE030E00E94930AD82ED2183E
:100D100040C0953729F41F2D1F7E2AE030E01DC00A
:100D20001F2D197F9F3661F0903720F4983509F018
:100D3000ACC00FC0903739F0983709F0A6C004C096
:100D400028E030E00AC0106114FD146020E130E0BA
:100D500004C014FD166020E132E017FF08C0F50161
:100D6000608171818281938144E050E008C0F50187
:100D700080819181BC0180E090E042E050E0A40ECF
:100D8000B51EA1010E94930AD82ED2188FE7F82E23
:100D9000F122F6FE0BC05EEFF522D91438F4F4FE12
:100DA00007C0F2FC05C08FEEF82202C01D2D01C065
:100DB000192DF4FE0DC0FE01ED0DF11D8081803373
:100DC00019F499EEF92208C01F5FF2FE05C003C0B6
:100DD0008F2D867809F01F5F0F2DF3FC14C0F0FEF5
:100DE0000FC01E1510F09D2C0BC09D2C9E0C911A4F
:100DF0001E2D06C080E290E0B3010E944D0A1F5FE5
:100E00001E15C0F304C01E1510F4E11A01C0EE2433
:100E100004FF0FC080E390E0B3010E944D0A02FF7F
:100E20001DC001FD03C088E790E00EC088E590E09A
:100E30000BC0802F867891F001FF02C08BE201C0C9
:100E400080E2F7FC8DE290E0B3010E944D0A06C0FB
:100E500080E390E0B3010E944D0A9A94D914C0F344
:100E6000DA94F101ED0DF11D808190E0B3010E9453
:100E70004D0ADD20A9F706C080E290E0B3010E9490
:100E80004D0AEA94EE20C1F743CEF30166817781E3
:100E9000CB012B96E2E10C94100BFC0120FD08C065
:100EA00023FD05C022FF02C0738362835183408308
:100EB0000895EF92FF920F931F9344FF02C033E017
:100EC00011C046FF02C034E00DC0DB01FC01AA0FD7
:100ED000BB1FEE1FFF1F1094D1F76A0F7B1F8E1FE1
:100EE0009F1F31E0660F771F881F991F3150D1F780
:100EF0007B018C01E20EF11C011D111DA80197015F
:100F0000B701CA011F910F91FF90EF9008950F93C1
:100F10001F93CF93DF938C01C8010E940B0AEC0151
:100F200097FD08C00E94E209892BB1F7CE01B801F4
:100F30000E94790ACE01DF91CF911F910F91089500
:100F4000A0E0B0E0E6EAF7E00C94FC0AEC01C62E63
:100F50005A01122F0E940B0AAC018B3219F08D320C
:100F600051F41068CA9409F46DC0CE010E940B0AB6
:100F7000AC0197FD67C06DEFD62ED1228D2D807309
:100F800001F54033F1F4CA9409F447C0CE010E9440
:100F90000B0AAC0197FD41C082E0D82A483711F016
:100FA000483559F480E4D82ACA94B9F1CE010E9498
:100FB0000B0AAC0199232CF430C0D6FC02C080E1AE
:100FC000D82AEE24FF248701242F2053283088F0CC
:100FD000D4FC09C02A3068F0D6FE05C02F7D822FD0
:100FE0008151863028F0CA01BE010E94790A12C0E0
:100FF0002750C801B7014D2D0E9459077B018C0174
:1010000082E0D82ACA9461F0CE010E940B0AAC019A
:1010100097FFDACFD1FC04C015C0EE24FF2487016E
:10102000D7FE08C010950095F094E094E11CF11CE7
:10103000011D111DC501B801A7012D2D0E944D07ED
:1010400081E001C080E0CDB7DEB7EAE00C94180B78
:10105000A0E2B0E0EEE2F8E00C94F80A6C01A62EF3
:101060008A017901FE01319680E2DF011D928A95A5
:10107000E9F770E030E060E040E050E04F01A1E0CF
:10108000B0E0F6018381F70183FD259183FF219173
:101090007F01222309F47EC02E3519F44115510534
:1010A00069F1872F90E08417950744F42D3551F1AD
:1010B0002D3221F4332329F431E021C0332309F404
:1010C000622F322F832F869586958695F401E80F3F
:1010D000F11D832F87703D0102C0660C771C8A9535
:1010E000E2F7208126292083361711F430E007C06B
:1010F000361710F43F5FE6CF3150E4CF71E04F5F19
:101100005F4FBFCF332319F08E8180628E837723A8
:1011100059F0FE0131969E012F5D3F4F80818095F1
:101120008193E217F307D1F7BB24B3944E010894DF
:10113000811C911CC6010E940B0AAC0197FD22C0C4
:10114000869586958695F401E80FF11D808190E0E3
:101150009A012770307002C0959587952A95E2F71D
:1011600080FD05C0CA01B6010E94790A0BC00115B5
:10117000110519F0D8014D938D01AA94BB24AA2022
:10118000C9F602C0BB2031F40115110529F0F801A0
:10119000108202C0EE24FF24C701A096EEE00C945A
:1011A000140BA0E0B0E0E7EDF8E00C94F80A5C0165
:1011B0006B013A01FC01178216828824EAC0812F54
:1011C00090E00E94E209892B21F0C5010E94870767
:1011D000E0C0153249F4F601F3FC6591F3FE61912C
:1011E0006F01653269F415E2C5010E940B0A97FD93
:1011F000DCC0181709F4CDC0B5010E94790ADAC025
:101200006A3219F0162F00E006C0F3FC1591F3FEC8
:1012100011916F0101E099240FC00260692D70E007
:1012200080E090E040E20E945907962EF601F3FC20
:101230001591F3FE11916F01212F20532A3068F38D
:1012400001FD03C099249A9403C0992009F4B2C007
:10125000183621F01C3699F4F6010BC0F601F3FCA8
:101260006591F3FE6191683619F06F01162F07C082
:1012700008600460F3FC1591F3FE11916F011123D6
:1012800009F498C08BE891E0612F70E00E94EA09B0
:10129000892B09F48FC0802F00FF03C0EE24FF24A8
:1012A00007C0F301E080F18022E030E0620E731E9F
:1012B0001E3651F4F5014681578160E070E0C701A8
:1012C000202F0E944D0765C0133691F481FD02C0A6
:1012D00099249394C5010E940B0A97FD66C0E114FE
:1012E000F10419F0F70181937F019A9499F74FC0A7
:1012F0001B3559F4C501692DA70196010E942808E4
:101300006C01009709F043C03DC0C5010E948707EA
:1013100097FD4BC01F3659F1103728F4143629F1C8
:10132000193639F527C0133719F0153711F51DC0D7
:10133000C5010E940B0AEC0197FD11C00E94E20951
:10134000892B29F0CE01B5010E94790A08C0E11469
:10135000F10419F0F701C1937F019A9449F7E11460
:10136000F104A9F0F701108212C0006203C000610D
:1013700001C00064C501692DA701202F0E94A007AC
:10138000882329F4F5018381807379F413C000FF69
:101390008394F501F380F601F3FC1591F3FE1191AE
:1013A0006F01112309F00BCF05C0882019F42FEF2E
:1013B0003FEF02C0282D30E0C901CDB7DEB7EEE027
:1013C0000C94140B91110DC1803219F08950855085
:1013D000D0F70895FC010590061621F00020D9F7FA
:1013E000C00108953197CF010895FC010590615027
:1013F00070400110D8F7809590958E0F9F1F08952B
:10140000FC016150704001900110D8F780959095D3
:101410008E0F9F1F0895CF93DF93EC014B8140FF08
:101420001AC046FF0AC04F7B4B838E819F81019675
:101430009F838E838A81282F2BC042FF13C0E881AF
:10144000F9818081282F332727FD3095211531051B
:1014500029F440624B832FEF3FEF1BC03196F98395
:10146000E88311C0EA85FB85CE0109959C0197FFB1
:101470000AC09B812F5F3F4F11F080E201C080E1E5
:10148000892B8B83E8CF8E819F8101969F838E83EA
:1014900030E0C901DF91CF9108950F931F93CF934F
:1014A000DF938C01EB018B8181FF1BC082FF0DC09C
:1014B0002E813F818C819D812817390764F4E88152
:1014C000F9810193F983E88306C0E885F985802FC7
:1014D0000995892B31F48E819F8101969F838E839C
:1014E00002C00FEF1FEFC801DF91CF911F910F9145
:1014F00008959C01FB01838180FF11C086FD0FC010
:101500009FEF2F3F390759F0228380648F7D8383BB
:101510008681978101979783868330E002C02FEF01
:101520003FEFC9010895FA01AA27283051F120316F
:1015300081F1E8946F936E7F6E5F7F4F8F4F9F4F67
:10154000AF4FB1E03ED0B4E03CD0670F781F891FA9
:101550009A1FA11D680F791F8A1F911DA11D6A0F77
:10156000711D811D911DA11D20D009F468943F912A
:101570002AE0269F11243019305D3193DEF6CF0129
:101580000895462F4770405D4193B3E00FD0C9F7EF
:10159000F6CF462F4F70405D4A3318F0495D31FD5C
:1015A0004052419302D0A9F7EACFB4E0A6959795AF
:1015B000879577956795BA95C9F700976105710585
:1015C00008959B01AC010A2E0694579547953795CF
:1015D0002795BA95C9F7620F731F841F951FA01D29
:1015E00008959927882708952F923F924F925F92EE
:1015F0006F927F928F929F92AF92BF92CF92DF9223
:10160000EF92FF920F931F93CF93DF93CDB7DEB787
:10161000CA1BDB0B0FB6F894DEBF0FBECDBF09941B
:101620002A88398848885F846E847D848C849B8472
:10163000AA84B984C884DF80EE80FD800C811B8180
:10164000AA81B981CE0FD11D0FB6F894DEBF0FBEAF
:0A165000CDBFED010895F894FFCF1F
:10165A000A577269746520627974652025233034CB
:10166A007820746F20656570726F6D206164647292
:10167A00657373202523303478000A2A25233034F1
:10168A0078203D202523303478000A456E7465722F
:10169A0020454550524F4D20616464726573732032
:1016AA00746F20777269746520284D4158203D2057
:1016BA002575293A2000257500456E7465722064E7
:1016CA0061746120746F20777269746520746F2069
:1016DA00454550524F4D20617420616464726573B0
:1016EA00732025753A20000000000300000000DA8C
:1016FA0004000500000A2CFF2E50572B82D2170136
:06170A003A2E960C2E00A1
:00000001FF
