:100000000C9434000C9451000C9451000C94510049
:100010000C9451000C9451000C9451000C9451001C
:100020000C9451000C9451000C9451000C9451000C
:100030000C9451000C9451000C9451000C945100FC
:100040000C9451000C9451000C94DF010C9451005D
:100050000C9451000C9451000C9451000C945100DC
:100060000C9451000C94510011241FBECFEFD8E026
:10007000DEBFCDBF13E0A0E0B1E0EEEAFCE002C0DD
:1000800005900D92A232B107D9F723E0A2E2B3E0C6
:1000900001C01D92AB33B207E1F70E94CC000C9473
:1000A00055060C9400001F93CF93DF93EC01162F9D
:1000B0000E94BE020E94E802883011F081E021C057
:1000C0009E0122273770C901880F892F881F990B3D
:1000D0009195806A0E94CA020E94E802883171F7F5
:1000E0008C2F0E94CA020E94E802883239F7812FC1
:1000F0000E94CA020E94E802883201F70E94C602EA
:1001000080E0DF91CF911F910895EF92FF920F93BE
:100110001F93CF93DF938C017B010E94BE020E944C
:10012000E802883011F081E030C0E801CC27D770B8
:10013000CC0FCD2FCC1FDD0BD1958C2F806A0E9468
:10014000CA020E94E802883171F7802F0E94CA0219
:100150000E94E802883239F70E94BE020E94E8023B
:10016000803109F78C2F816A0E94CA020E94E8023E
:100170008034C9F60E94DE02F70180830E94E80203
:10018000883589F60E94C60280E0DF91CF911F91E9
:100190000F91FF90EF9008950E94EC020E94B5022B
:1001A0008CEF8AB988EF84B980E091E090933803AE
:1001B0008093370390933603809335037894FFCF71
:1001C000AF92BF92CF92DF92EF92FF920F931F9365
:1001D000CF93DF936C01E42E10922403C0E0D0E0B3
:1001E000062F10E08EE1A82E82E0B82EFC2EFE0C29
:1001F000C017D1076CF580912403F601E80FF11DBB
:1002000060818F2D90E00E945300813019F11F9280
:10021000FF9280912403F601E80FF11D80811F9267
:100220008F93BF92AF920E945A038FE39CE901978C
:10023000F1F700C000000F900F900F900F900F90FB
:100240000F90909124039F5F909324032196CECF2B
:1002500081E001C080E0DF91CF911F910F91FF906D
:10026000EF90DF90CF90BF90AF900895482F63E05C
:1002700086E192E00E94E000809118028933C1F487
:1002800080911702893059F480E38093180280939B
:100290001702809116028F5F8093160203C080E3DD
:1002A00080931802809117028F5F80931702089540
:1002B0008F5F809318020895CF93DF9310922403E9
:1002C000C0E0D0E060E3CE010E945300813089F0AD
:1002D0008FE39CE90197F1F700C0000080912403AF
:1002E0008F5F809324032196C032D10559F781E0B6
:1002F00001C080E0DF91CF910895BF92CF92DF924D
:10030000EF92FF920F931F93CF93DF93CDB7DEB79A
:10031000C150D1400FB6F894DEBF0FBECDBFB82E8E
:10032000062FCE0101967C0110E06C01812F8B0D10
:100330001017E9F0BE016F5F7E4F90E00E948500CC
:10034000813079F0CF5FDE4F8881C150D140F70115
:1003500081937F01909124039F5F909324031F5FFB
:10036000E5CF8CE492E00E94700380E017C0F601B4
:10037000E10FF11D10828FE39CE90197F1F700C0B6
:100380000000DF92CF9283E592E09F938F930E94CB
:100390005A030F900F900F900F9081E0CF5FDE4FC8
:1003A0000FB6F894DEBF0FBECDBFDF91CF911F9186
:1003B0000F91FF90EF90DF90CF90BF9008951F9224
:1003C0000F920FB60F9211242F933F934F935F9389
:1003D0006F937F938F939F93AF93BF93CF93DF934D
:1003E000EF93FF93C0912403D0E080913503909167
:1003F00036030E941C03CB5DDC4F8883E09124030D
:10040000F0E0EB5DFC4F8081873631F584E08BB9FD
:1004100088E792E00E947003809123030E943601D6
:10042000409123034D5F4093230364E08EE091E00D
:100430000E94E0008091230367E083500E947D01C9
:10044000809123038C5F8093230383B1863009F46A
:1004500079C089E892E063C0823731F588E08BB9D2
:100460008BE992E00E947003809123030E94360181
:10047000409123034D5F4093230364E082E191E0C8
:100480000E94E0008091230367E083500E947D0179
:10049000809123038C5F8093230383B1853009F41B
:1004A00051C087EC92E03BC08C3631F4609123035D
:1004B00080E00E947D0146C0823661F480E18BB904
:1004C0008AEA92E00E94700383B18330D9F180EC14
:1004D00092E025C0843771F440E060E286E191E06B
:1004E0000E94E000882319F087ED92E018C085EEA5
:1004F00092E015C08336B1F41092230380E3809319
:1005000016028093170281E3809318020E945C0117
:10051000811103C082EF92E002C08FEF92E00E944F
:10052000700310C0853771F48BE193E00E94700373
:100530002FEF83ED90E3215080409040E1F700C021
:100540000000F2CFFF91EF91DF91CF91BF91AF917A
:100550009F918F917F916F915F914F913F912F91DB
:100560000F900FBE0F901F9018951092B9008CE05D
:100570008093B80084E08093BC00089584EA80935F
:10058000BC008091BC0087FFFCCF089584E9809374
:10059000BC0008958093BB0084E88093BC008091E8
:1005A000BC0087FFFCCF089584EC8093BC00809151
:1005B000BC0087FFFCCF8091BB00089584E8809346
:1005C000BC008091BC0087FFFCCF8091BB000895E8
:1005D0008091B900887F08951092C50087E68093C6
:1005E000C400E2ECF0E0808186608083E1ECF0E022
:1005F0008081886980830895CF93C82F8A3029F439
:1006000060E070E08DE00E94FC028091C00085FFF8
:10061000FCCFC093C60080E0CF910895CF93209186
:10062000C00027FFFCCFC091C600BC018C2F0E94E8
:10063000FC028C2FCF910895CF93DF93EC012B8197
:1006400020FF33C026FF0AC02F7B2B838E819F8122
:1006500001969F838E838A8190E029C022FF0FC07C
:10066000E881F9818081082E000C990B009719F41C
:1006700020622B831AC03196F983E8830EC0EA8585
:10068000FB85099597FF09C02B81019611F080E247
:1006900001C080E1822B8B8308C02E813F812F5FB8
:1006A0003F4F3F832E83992702C08FEF9FEFDF914B
:1006B000CF910895A0E0B0E0E0E6F3E00C942E06C0
:1006C000AE014B5F5F4FFA0161917191AF01809173
:1006D0003703909138030E94A003E2E00C944A068D
:1006E0000F931F93CF93DF93E0913703F09138037B
:1006F000238121FF1BC08C01D0E0C0E0F801819173
:100700008F016091370370913803DB011896ED91EA
:10071000FC911997882331F00995892B79F3DFEF44
:10072000CFEFECCF8AE00995892B19F08FEF9FEF7F
:1007300002C08D2F9C2FDF91CF911F910F910895B3
:10074000ACE0B0E0E6EAF3E00C941E067C016B013D
:100750008A01FC0117821682838181FFBDC1CE010F
:1007600001964C01F7019381F60193FD859193FF6A
:1007700081916F01882309F4ABC1853239F493FD6F
:10078000859193FF81916F01853229F4B70190E043
:100790000E948805E7CF512C312C20E02032A0F4B4
:1007A0008B3269F030F4803259F0833269F4206181
:1007B0002CC08D3239F0803339F4216026C022609C
:1007C000246023C0286021C027FD27C030ED380FEA
:1007D0003A3078F426FF06C0FAE05F9E300D11240F
:1007E000532E13C08AE0389E300D1124332E206220
:1007F0000CC08E3221F426FD6BC1206406C08C36FD
:1008000011F4206802C0883641F4F60193FD859109
:1008100093FF81916F018111C1CF982F9F7D9554D6
:10082000933028F40C5F1F4FFFE3F9830DC083362C
:1008300031F0833771F0833509F05BC022C0F801D5
:10084000808189830E5F1F4F44244394512C5401AF
:1008500015C03801F2E06F0E711CF801A080B18064
:1008600026FF03C0652D70E002C06FEF7FEFC5016A
:100870002C870E947D052C0183012C852F77222E49
:1008800017C03801F2E06F0E711CF801A080B18032
:1008900026FF03C0652D70E002C06FEF7FEFC5013A
:1008A0002C870E9472052C012C852068222E830142
:1008B00023FC1BC0832D90E048165906B0F4B70105
:1008C00080E290E00E9488053A94F4CFF50127FC7D
:1008D000859127FE81915F01B70190E00E94880514
:1008E00031103A94F1E04F1A51084114510471F754
:1008F000E5C0843611F0893639F5F80127FF07C0C5
:1009000060817181828193810C5F1F4F08C060817B
:100910007181072E000C880B990B0E5F1F4F2F76ED
:10092000722E97FF09C090958095709561957F4FC5
:100930008F4F9F4F2068722E2AE030E0A4010E9462
:10094000C005A82EA81844C0853729F42F7EB22EE2
:100950002AE030E025C0F22FF97FBF2E8F36C1F09C
:1009600018F4883579F0B4C0803719F0883721F051
:10097000AFC02F2F2061B22EB4FE0DC08B2D84602E
:10098000B82E09C024FF0AC09F2F9660B92E06C05A
:1009900028E030E005C020E130E002C020E132E094
:1009A000F801B7FE07C060817181828193810C5F7D
:1009B0001F4F06C06081718180E090E00E5F1F4F85
:1009C000A4010E94C005A82EA818FB2DFF777F2E3A
:1009D00076FE0BC0372D3E7FA51450F474FE0AC07E
:1009E00072FC08C0372D3E7E05C0BA2C372D03C0DF
:1009F000BA2C01C0B52C34FF0DC0FE01EA0DF11D6B
:100A00008081803311F4397E09C032FF06C0B3946F
:100A1000B39404C0832F867809F0B39433FD13C0D8
:100A200030FF06C05A2CB31418F4530C5B18B32CC7
:100A3000B31468F4B70180E290E03C870E94880517
:100A4000B3943C85F5CFB31410F43B1801C0312C9E
:100A500034FF12C0B70180E390E03C870E94880514
:100A60003C8532FF17C031FD03C088E790E002C02B
:100A700088E590E0B7010CC0832F867859F031FFEC
:100A800002C08BE201C080E237FD8DE2B70190E049
:100A90000E948805A51438F4B70180E390E00E9415
:100AA00088055A94F7CFAA94F401EA0DF11D8081CC
:100AB000B70190E00E948805A110F5CF332009F41A
:100AC00051CEB70180E290E00E9488053A94F6CFBB
:100AD000F7018681978102C08FEF9FEF2C96E2E1AC
:100AE0000C943A06FC010590615070400110D8F753
:100AF000809590958E0F9F1F0895FC016150704066
:100B000001900110D8F7809590958E0F9F1F089542
:100B10000F931F93CF93DF93FB01238121FD03C02C
:100B20008FEF9FEF28C022FF16C046815781248196
:100B300035814217530744F4A081B1819D012F5F95
:100B40003F4F318320838C93268137812F5F3F4F26
:100B50003783268310C0EB01092F182F0084F185FD
:100B6000E02D0995892BE1F68E819F8101969F8367
:100B70008E83812F902FDF91CF911F910F91089538
:100B8000FA01AA27283051F1203181F1E8946F93BE
:100B90006E7F6E5F7F4F8F4F9F4FAF4FB1E03ED064
:100BA000B4E03CD0670F781F891F9A1FA11D680F02
:100BB000791F8A1F911DA11D6A0F711D811D911D35
:100BC000A11D20D009F468943F912AE0269F1124AA
:100BD0003019305D3193DEF6CF010895462F47700E
:100BE000405D4193B3E00FD0C9F7F6CF462F4F7069
:100BF000405D4A3318F0495D31FD4052419302D0C7
:100C0000A9F7EACFB4E0A69597958795779567956C
:100C1000BA95C9F700976105710508959B01AC016C
:100C20000A2E06945795479537952795BA95C9F793
:100C3000620F731F841F951FA01D08952F923F926E
:100C40004F925F926F927F928F929F92AF92BF92DC
:100C5000CF92DF92EF92FF920F931F93CF93DF9388
:100C6000CDB7DEB7CA1BDB0B0FB6F894DEBF0FBEE5
:100C7000CDBF09942A88398848885F846E847D8432
:100C80008C849B84AA84B984C884DF80EE80FD8034
:100C90000C811B81AA81B981CE0FD11D0FB6F894AA
:0E0CA000DEBF0FBECDBFED010895F894FFCF6B
:100CAE000000000300000000FC020E030000722D85
:100CBE00670A672D720A30303030303030303030C5
:100CCE003030303030303030303030303030303016
:100CDE0030303030303000000000000000000000E6
:100CEE0000000000000000000000000000000000F6
:100CFE0000000000000000000000000000000000E6
:100D0E0000000000000000000000000000000000D5
:100D1E0000000000000000000000000000000000C5
:100D2E0000000000000000000000000000000000B5
:100D3E0000000000000000000000000000000000A5
:100D4E000000000000000000000000000000000095
:100D5E000000000000000000000000000000000085
:100D6E000000000000000000000000000000000075
:100D7E000000000000000000000000000000000065
:100D8E000000000000000000000000000000000055
:100D9E000000000000000000000000000000000045
:100DAE000000000000000000000000000000000035
:100DBE000000000000003030315445535445537547
:100DCE00636365737366756C205772697465206F03
:100DDE0066206368617220256320746F20616464ED
:100DEE00726573732025233034780A000A455252F7
:100DFE004F52005375636365737366756C6C79201F
:100E0E007265616420737472696E673A0A20257385
:100E1E002028454E44290A000A475245454E205483
:100E2E0055524E4544204F4E00477265656E204C1C
:100E3E004544206661696C757265000A524544200E
:100E4E005455524E4544204F4E000A4261636B7515
:100E5E007020524544205455524E4544204F4E006A
:100E6E004261636B757020526564204C4544206668
:100E7E0061696C757265005A65726F732073756364
:100E8E0063657373005A65726F73206661696C6572
:100E9E006400436C65616E206661696C6564004D2B
:100EAE00656D6F7279207375636365737366756CA8
:100EBE006C7920636C65616E65640074657374652E
:020ECE00000022
:00000001FF
